:1000000000308A0075280000FF00030E8301A10064
:100010007F08A0000A08A7008A01A00E0408A20019
:100020007708A3007808A4007908A5007A08A6003C
:10003000831383128B1E1E280B192F28220884007D
:100040002308F7002408F8002508F9002608FA001C
:1000500027088A00210E8300FF0E7F0E09008A11F7
:1000600047280A108A100A11820709340C34063412
:1000700003340A108A100A118207013403340A106B
:100080008A100A118207283414340A340534AA0A63
:10009000AB0A0B118A111E2828083120F8000F39ED
:1000A000F700F030060577048600003005180130AF
:1000B0003920F80028070339A800AA018A11A528C9
:1000C00029083120F800780EF039F7000F300605C6
:1000D000770486000030851801303920F8002907A0
:1000E0000339A900AB018A11AF28840183131F30A3
:1000F0008305A801A901AA01AB0107309F00F030D8
:100100008316060586000F30060586000514851443
:10011000F33005050C388500CF30050530388500F3
:1001200083128B16C0308B0483160108C039013846
:10013000810083120508F700F70C770C03393F2084
:10014000F8002A02031DA5284C280508F700770EA1
:1001500003393F20F8002B02031DAF2860289428A4
:0201600063003A
:02400E00593F18
:00000001FF
;PIC16F648A
;CRC=5997  CREATED="26-Feb-13 18:19"
